:100000000C947F050C94A7050C94A7050C94A705E8
:100010000C94A7050C94A7050C94A7050C94A705B0
:100020000C94A7050C94A7050C94A7050C9436090D
:100030000C94A7050C94A7050C94A7050C94A70590
:100040000C94E1080C94A7050C94A7050C94A70543
:100050000C94A7050C94A7050C94A7050C94A70570
:100060000C94A7050C94A7050101FF030101F703F8
:100070006C00680000000000240027002A00000037
:100080000000250028002B000500893008023802F6
:100090004978681400000500380168010000175312
:1000A00044001613780016131400151020001520B4
:1000B0001000540A03E181867F3E186D830F0F0EF6
:1000C0000183866033186DC3198F1803C38E6033A4
:1000D000186DE330CF1803C39E603630CDE360CF98
:1000E0003006C79E7E3E30CDB360CF300CC6F66082
:1000F0003330D9B660CF33CFCCF66061B0DB1E6051
:10010000CF30D86CE6C061B0DB1E618F19986CC629
:10011000C063B19B0E330F0FB078C6FF7E1F1B0666
:100120001E0F401900000000000000000000000049
:1001300000000000000000000000000000F80000C7
:10014000007C000003FF000001FF000007FF8000AB
:10015000037980000FFF8000062080000FFFC000A1
:100160000C00C0001FFFC000080040001FFF00007F
:1001700008E340003FF8000018E360003FE1999970
:1001800098E360003FE19999980060003FF8000013
:10019000180060003FFC0000180060001FFF000016
:1001A000180060000FFFC00019CCE0000FFFC00076
:1001B0001FFE600003FF00001DFFE00003FE0000C3
:1001C00018CC600000F8000018CC600000000000AF
:1001D000000000000000000000000000000000001F
:1001E00000000000000000000000000050414B2D06
:1001F0004D414E0000C0E0F0F8FCFCFEFEFEFFFFAB
:10020000FFFFFEFEFEFCFCF8706000FEFFFFFFFF3C
:10021000FFFFFFFFFFFFEFEFC787838301000010A1
:10022000387C38100000000010387C381000070FB0
:100230001F3F7F7F7F7FFFFFFFFFFFFF7F7F3F3FEE
:100240003E1E1E000000000000000008080800001C
:100250000060600000002010080402003E51494583
:100260003E0000427F40000042615149460021416A
:10027000454B31001814127F1000274545453900C1
:100280003C4A494930000171090503003649494992
:100290003600064949291E000036360000007C124F
:1002A00011127C007F49494936003E4141412200FC
:1002B0007F4141221C007F49494941007F090909CA
:1002C00001003E4149497A007F0808087F0000414B
:1002D0007F4100002040413F01007F08142241007F
:1002E0007F40404040007F020C027F007F040810E6
:1002F0007F003E4141413E007F09090906003E4121
:1003000051215E007F0919294600464949493100BB
:1003100001017F0101003F4040403F001F2040207D
:100320001F003F4038403F002054545478007F481D
:1003300044443800384444442000384444487F0052
:10034000385454541800087E0901020018A4A4A4CB
:100350007C007F080404780000447D400000408059
:10036000847D00007F102844000000417F40000091
:100370007C04180478007C08040478003844444461
:100380003800FC242424180018242418FC007C08BD
:1003900004040800485454542000043F4440200002
:1003A0003C4040207C001C2040201C003C40304051
:1003B0003C004428102844001CA0A0A07C3C7EFFE8
:1003C000FFFFFF7E3C3C7EFFFFE7E7C3427CFE3F32
:1003D0000F0F3FFE7C42C3E7E7FFFF7E3C3E7FFC02
:1003E000F0F0FC7F3E7CFE22EBFF62EA7C7CC20ADE
:1003F00083830A827C0E08180824082E0837083FD9
:10040000084B0854085D0868086F0877080E141830
:100410001424142E1437143F144B1454145D146810
:100420001177110E1F181F241F2E1F5D1F68196FD3
:1004300019771968256F2577250E2B182B242B2E5D
:100440002B372B3F2B4B2B542B5D2B682E772E0EEF
:1004500037183724372E3737373F374B3754375D08
:100460003768376F37000C0C17171F1F22222D2DEE
:10047000380E771C3C7E666662400000000000007B
:1004800000F804F4141414141414141413100F00AA
:10049000000000000000000F1013141414141414B2
:1004A0001414E404E414141414141414141414147C
:1004B0001414141414141414141414141414E4043C
:1004C000E41414141414141414141414141414141C
:1004D0001414141414141414141414E404E414144C
:1004E00014141414141414141414141414141414CC
:1004F000141414141414E404F800000000000000A4
:1005000000FF00FF000000000000000040A0A0A0CD
:10051000A0A0A0A0A0A0A0A0A040000000000000FB
:100520000000FF00FF000000000000000040A0A04D
:10053000A0A0A0A0A04000000000000000007F805C
:100540007F000000000000000040A0A0A0A0A0A02C
:10055000A0A04000000000000000007F807F00009D
:10056000000000000000C020A0A0A0A020C000004B
:10057000000000000000FF00FF000000000000007D
:1005800000FF00FF0000000000000000000000006D
:10059000000000000000000000000000000000005B
:1005A0000000FF00FF00000000000000000000004D
:1005B000000000000000000000000000000000003B
:1005C000000000000000000000000000000000002B
:1005D000000000000000000000000000000000001B
:1005E0000000000000001F202F2F2F2F201F0000D1
:1005F000000000000000FF00FF00000000000000FD
:1006000000FF00FF0000000000000000FE01FE00EF
:1006100000000000000000FE01FE000000000000DD
:1006200000000708070000000000000000FE01FDB8
:10063000050505050505050505050502000202027B
:10064000020202000205050505050505050505056B
:10065000FD01FE0000000000000000FE013E4040E1
:1006600040404040404040404040404040800000CA
:10067000000000000000FF00FF000000000000007C
:1006800000FF00FF00000000000000007F807F00EE
:10069000000000000000007F807F000000000000DC
:1006A0000000C020C000000000000000007F809F0C
:1006B000A0A0A0A0A0A0A0A0A0A0A0A0A0A0A0A03A
:1006C000A0A0A0A0A0A0A0A0A0A0A0A0A0A0A0A02A
:1006D0009F807F00000000000000007F807E0101FD
:1006E00001010101010101010101010101000000FD
:1006F000000000000000FF00FF00000000000000FC
:1007000000FF00FF000000000000000000000000EB
:1007100000000000000000000000000000000000D9
:100720000000FF00FF0000000000000000000000CB
:1007300000000000000000000000000000000000B9
:1007400000000000000000000000000000000000A9
:100750000000000000000000000000000000000099
:10076000000000000000F804F4F4F4F404F80000C1
:10077000000000000000FF00FF000000000000007B
:1007800000FF00FF0000000000000000020505055A
:10079000050505050505050505020000000000002A
:1007A0000000FF00FF00000000000000000205053F
:1007B0000505050505020000000000000000FE011F
:1007C000FE0000000000000000020505050505050B
:1007D0000505020000000000000000FE01FE000010
:1007E00000000000000003040505050504030000E7
:1007F000000000000000FF00FF00000000000000FB
:10080000001F2027282828282828282828282828A2
:100810002828282828282828282828282828282858
:100820002828272027282828282828282828282852
:100830002828282828282828282828282828272041
:100840002728282828282828282828282828282829
:100850002828282828282828282828C700FF00001A
:10086000000000000000F008C828282828282828B0
:1008700028282828282827201F0045006801000074
:10088000F6E8DBCFC3B8AEA49B928A827B746E6815
:10089000625C57524E4945413E3A3734312E2C293D
:1008A000272523210A0A153A49676E6F7265006D84
:1008B000560A0A504C45415345205455524E204F3C
:1008C000464620004C4F572042415454455259212E
:1008D000200003053F213F1208120A100A0E1C0EC9
:1008E0000C1E0C141A14161F161E131E1E1B1E1E81
:1008F0001F1E3F213F3A2F3A173D173F213F181F38
:1009000002040A041F0E04040E1F0A1F0A0E0E1F03
:1009100004110E2E252E2F2A2E262929021F020809
:100920001F08150E04040E150E15151B151B0406C5
:1009300004040C040000000017000300031F0A1F3A
:1009400016371A1904130A153A000300000E111184
:100950000E000A040A040E0400300004040400100F
:10096000001804031F111F121F101D151711151F4A
:1009700007041F17151D1F151D01011F1F151F1728
:10098000151F000A00003200040A110A0A0A110A9F
:10099000040115020E11171E051E1F150A0E110A5D
:1009A0001F110E1F15111F05010E111D1F041F1110
:1009B0001F1108100F1F041B1F10101F061F1E04FD
:1009C0000F0E110E1F09060E112E1F051A12150902
:1009D000011F011F101F0F180F1F0C1F1B041B03EB
:1009E0001C03191513001F11030418111F00020125
:1009F000022020200001020C121E1F120C0C1212E9
:100A00000C121F0C1A14041E05242A1E1F021C148B
:100A10001D1020201D1F0814111F101E041E1E0271
:100A20001C0C120C3E0A040C123E1E040214160A80
:100A3000020F120E101E0E100E1E081E120C122691
:100A4000281E322A26041E21001F00211E04010236
:100A5000013F213F172B152010204C4F4144455298
:100A600000172B16201314000A4E6F2053442063E6
:100A7000617264206F720A6E6F204C4F4144455280
:100A80002E4845580A0A153A45786974001D2046D3
:100A90006C617368696E670A20206C6F61646572AF
:100AA0002E2E2E0A0A444F4E2754205455524E20C3
:100AB0004F464621000000000023002600290004C4
:100AC00004040404040404020202020202030303F5
:100AD00003030301020408102040800102040810EF
:100AE000200102040810200000000800020100009C
:100AF000030407000000000000000000EC1F1124A8
:100B00001FBECFEFD8E0DEBFCDBF11E0A0E0B1E067
:100B1000E8EFF4E402C005900D92AE39B107D9F7C1
:100B200024E0AEE9B1E001C01D92A73AB207E1F7B7
:100B300015E0CFE7D5E004C02197FE010E946F22A7
:100B4000CE37D107C9F70E942B170C947A220C9448
:100B50000000CF92DF92EF92FF920F931F93CF93FB
:100B6000DF936C017A018B01C0E0D0E0CE15DF0588
:100B700089F0D8016D918D01D601ED91FC91019024
:100B8000F081E02DC6010995892B11F47E0102C088
:100B90002196ECCFC701DF91CF911F910F91FF906C
:100BA000EF90DF90CF9008952F923F925F926F92D7
:100BB0007F928F929F92AF92BF92CF92DF92EF92ED
:100BC000FF920F931F93CF93DF93262F30E0C82F10
:100BD000D0E0F90140E8849FE00DF11D1124E658B2
:100BE000FB4F94915090BE01651508F460C0A52D8F
:100BF000B0E0AD01495F5F4F421753070CF457C097
:100C00004091BF01E42FE695E695E6958E1322C04C
:100C10000091AE011091AF01F901EA1BFB0BA42F6B
:100C2000A7700130110571F44091B6015091B701E0
:100C3000B3E0440F551FBA95E1F7E40FF51FEB53EE
:100C4000FC4F02C0E354FC4F449101C0440FAA95ED
:100C5000EAF72EC0F0E03196CE17DF0741F500919C
:100C6000AE011091AF01F901EA1BFB0BA42FA77095
:100C70000130110571F44091B6015091B70173E054
:100C8000440F551F7A95E1F7E40FF51FEB53FC4F26
:100C900002C0E354FC4F449150E0E8E0F0E0EA1B6E
:100CA000F10902C055954795EA95E2F701C040E089
:100CB000942B6730B0F40091C5011091C60143E058
:100CC000A6E0B0E0AC1BBD0BF901ED58FB4F84135F
:100CD00005C0A017B10714F45491952B4F5F47300E
:100CE000B1F70091AC01A0E0B0E058E0059F8001B1
:100CF000112448E0E42EF12CFD01E854FE4F408120
:100D00006417B8F150E06A0177E0C70ED11CC21633
:100D1000D3067CF1D180ED2DE695E695E6958E1310
:100D20000FC0F901E41BF50BE00FF11FEB51FC4F75
:100D3000E4914D2D477001C0EE0F4A95EAF71AC0B5
:100D4000F0E03196CE17DF07A1F4F901E41BF50BB3
:100D5000E00FF11FEB51FC4FE491F0E04D2D477097
:100D60006701C41AD10802C0F595E795CA94E2F765
:100D700001C0E0E09E2B1296A630B10509F0BCCF71
:100D80004FEF480F463008F070C0DE011197AA0FF0
:100D9000BB1FFD01EB59FB4F94907090BF01A72C36
:100DA000B12C47E0A40EB11C812CFD01EA59FB4F88
:100DB0001F01EE24E394F12C052D10E0095F1F4F75
:100DC000F1014491941608F051C0E92DF0E0AF0113
:100DD00047525E4F6A01DA014C91442309F443C043
:100DE000AF01440F551FFA01EB50FC4F64906611A0
:100DF0003AC06490561430F5E491F0E00E171F07E6
:100E00000CF1FA01EA50FC4F64907614D8F4E491A6
:100E1000F0E0AE16BF06B4F0D6011C924091C001BE
:100E20004F5F4093C001E091C701F091C80140912C
:100E3000C3015091C4014E0F5F1F5093C8014093EE
:100E4000C70114C0FA01EA50FC4F449146954695FB
:100E50004695841339C0E491E770A70101C0440F9F
:100E6000EA95EAF7842A9394ABCF812C9829E1E79D
:100E7000F4E0CEE9D1E040E05C2F5E5F7991713023
:100E800061F4863051F47491671731F0A491B0E0A9
:100E900011962A173B0709F440EE31965C13EECF0A
:100EA000892F842BDF91CF911F910F91FF90EF90AD
:100EB000DF90CF90BF90AF909F908F907F906F907A
:100EC0005F903F902F9008954491469546954695A2
:100ED00050E04F5F5F4FC417D50709F0C4CFE491CE
:100EE000C2CF089580E090E008950E94752283307B
:100EF00081F028F4813099F08230A1F00895873094
:100F0000A9F08830B9F08430D1F4809180008F7DD1
:100F100003C0809180008F7780938000089584B50E
:100F20008F7702C084B58F7D84BD08958091B00015
:100F30008F7703C08091B0008F7D8093B0000895BB
:100F40001F93CF93DF93282F30E0F901E951F54F3C
:100F50008491F901ED52F54FD491F901E154F54F27
:100F6000C491CC23C9F0162F81110E947707EC2F72
:100F7000F0E0EE0FFF1FE258FF4FA591B4918FB73D
:100F8000F894111105C09C91ED2FE095E92302C062
:100F9000EC91ED2BEC938FBFDF91CF911F910895D2
:100FA000CF93DF9390E0FC01ED52F54F2491FC01CB
:100FB000E154F54F8491882361F190E0880F991FE7
:100FC000FC01EC58FF4FC591D491FC01E258FF4F52
:100FD000A591B491611109C09FB7F89488812095BB
:100FE00082238883EC912E230BC0623061F49FB77B
:100FF000F8943881822F809583238883EC912E2B5F
:101000002C939FBF06C08FB7F894E8812E2B2883BE
:101010008FBFDF91CF9108951F93CF93DF93182F48
:10102000EB0161E00E94D007209711F460E004C05A
:10103000CF3FD10539F461E0812FDF91CF911F912E
:101040000C94A007E12FF0E0E951F54FE491E33073
:10105000F9F048F4E130B9F0E230A1F584B58062EE
:1010600084BDC8BD34C0E730E9F0E83019F1E430A0
:1010700049F580918000806280938000D0938B003E
:10108000C0938A0024C084B5806884BDC7BD1FC0DA
:1010900080918000806880938000D0938900C09305
:1010A000880015C08091B00080688093B000C09324
:1010B000B3000DC08091B00080628093B000C093F7
:1010C000B40005C0C038D1050CF0B5CFAFCFDF916B
:1010D000CF911F9108958E3008F08E5087708064F4
:1010E00080937C0080917A00806480937A00809164
:1010F0007A0086FDFCCF809178002091790090E005
:10110000922B08953FB7F8948091130290911402A6
:10111000A0911502B091160226B5A89B05C02F3FDD
:1011200019F00196A11DB11D3FBFBA2FA92F982F0D
:101130008827820F911DA11DB11DBC01CD0142E088
:10114000660F771F881F991F4A95D1F708958F92D0
:101150009F92AF92BF92CF92DF92EF92FF926B017C
:101160007C010E9482084B015C01C114D104E1049E
:10117000F104F1F00E948208DC01CB018819990981
:10118000AA09BB09883E9340A105B10570F321E08F
:10119000C21AD108E108F10888EE880E83E0981E93
:1011A000A11CB11CC114D104E104F10419F7DDCF75
:1011B000FF90EF90DF90CF90BF90AF909F908F9077
:1011C00008951F920F920FB60F9211242F933F9301
:1011D0008F939F93AF93BF938091190290911A02BE
:1011E000A0911B02B0911C023091120223E0230F48
:1011F0002D3720F40196A11DB11D05C026E8230F4F
:101200000296A11DB11D20931202809319029093A2
:101210001A02A0931B02B0931C02809113029091BA
:101220001402A0911502B09116020196A11DB11DE4
:101230008093130290931402A0931502B0931602A8
:10124000BF91AF919F918F913F912F910F900FBEC2
:101250000F901F90189580911D04882319F080919C
:101260001F0401C080E08093B40008951F920F9284
:101270000FB60F9211242F933F934F935F936F9369
:101280007F938F939F93AF93BF93EF93FF9360915F
:101290001E04662321F1809111028F5F8093110259
:1012A000909117028917D8F090911D0481E0892749
:1012B00080931D041092110280911802882369F016
:1012C0008091000193E4899F802D1124895B809394
:1012D00000010E943B2290931F040E942B09FF9162
:1012E000EF91BF91AF919F918F917F916F915F919E
:1012F0004F913F912F910F900FBE0F901F90189517
:101300001F93CF93DF93EC01162FF89460E08F8545
:101310000E94A007888918161CF460E00E94A007AC
:101320001EBD00000DB407FEFDCF8EB588891816CE
:101330001CF461E00E94A0077894DF91CF911F9187
:101340000895EF92FF921F93CF93DF93EC018C856A
:101350008F5F8C878DE1E82E82E0F82E10E0612F00
:101360006064CE010E94800960E8CE010E9480097D
:1013700061E08F850E94A007888918161CF460E040
:101380000E94A00780E090E0F701E80FF91F20819C
:101390002EBD00000DB407FEFDCF2EB5019684359D
:1013A000910591F7888918161CF461E00E94A00746
:1013B0001F5F84E5E80EF11C163089F660E4CE016B
:1013C000DF91CF911F91FF90EF900C9480091092C4
:1013D000AC011092A3011092A201E6EAF1E01182A1
:1013E000108213821282158214821092A50110922B
:1013F000A401E8EBF1E082E480832CE12183A0EBFF
:10140000B1E083E090E011969C938E9337E33283B2
:10141000238313969C938E9312974DE444832583E4
:1014200015969C938E931497368388E2878317963C
:101430001C921E9216971092C2011092C10108953B
:101440001092C0011092AD01E9EDF1E021E098E3C6
:101450009E0F81E021939E13FCCF80939E01809389
:101460009F0108950F931F93CF93DF93462F4695C7
:1014700046954695962F97706FEF70E0EB01092E19
:1014800002C0CC0FDD1F0A94E2F728E030E0291BF0
:10149000310902C0759567952A95E2F7282F30E04B
:1014A00080E8489F200D311D1124A0E0B0E010E03D
:1014B00080E090E0FD01E20FF31FE658FB4F08E0EB
:1014C000111105C0449150E04C235D2304C04491A8
:1014D00050E046235723452B11F081E090E0015066
:1014E00031960111EDCFA058BF4F113011F011E02E
:1014F000E1CFDF91CF911F910F9108956F927F926D
:101500008F929F92AF92BF92CF92DF92EF92FF9213
:101510000F931F93CF93DF93CDB7DEB7C455D10997
:101520000FB6F894DEBF0FBECDBF8091A0019091A1
:10153000A10197FD0796A3E095958795AA95E1F7F8
:1015400016E0180F0091C9012091C9013091CA011C
:10155000802F90E0A9014D5A5F4F4817590784F03A
:101560007C01E21AF30A602F812F0E94D405E1E08A
:10157000F0E0EC0FFD1FEE0DFF1D80830F5FE4CF49
:101580000091A0011091A10117FF02C0095F1F4F38
:1015900073E0159507957A95E1F70B5FE8E0AE2EBD
:1015A000B12CF4E56F2EC02ED12C8091A00190912A
:1015B000A10197FD079643E0959587954A95E1F738
:1015C0001091C9018C159D050CF059C0E12EF12C2C
:1015D0008091C9019091CA018D5A9F4F8E159F0528
:1015E0000CF44BC0612F802F0E94D405882E909060
:1015F000A0017090A101892D972DB5010E9447226D
:101600004091C9015091CA01F701E41BF50B282D47
:1016100030E0B901082E02C0759567950A94E2F78B
:1016200021E030E02C0F3D1FE20FF31F2081022E3E
:10163000000C330BD501A81BB90B01C0220FAA95D2
:10164000EAF7262B8082892D972D97FD079663E078
:10165000959587956A95E1F7B601681B790B669EAB
:10166000F001679EF00D1124E41BF50BEE0DFF1D3C
:10167000E35EFD4F20831F5FA9CF015094CF082F59
:1016800028E0A22EB12C7C01FF2434E5932EC12E3C
:10169000D12C8091C9019091CA018D5A9F4F8C1510
:1016A0009D050CF44BC0612F802F0E94D405882E1D
:1016B000F091A001E091A1018F2F9E2FB5010E9412
:1016C0004722AC016091C9017091CA012F2F3E2FB2
:1016D00037FF02C0295F3F4F83E0359527958A95F4
:1016E000E1F7C701821B930B989EF001999EF00DC4
:1016F0001124E61BF70BEC0DFD1DE35EFD4F882D5D
:1017000090E0042E02C0959587950A94E2F7C61AD8
:10171000D70AA1E0B0E0AC0FBD1FAC0DBD1D2C91F0
:10172000022E000C330BD501A41BB50B01C0220FF8
:10173000AA95EAF7282B20831F5FA9CFCC5ADF4F49
:101740000FB6F894DEBF0FBECDBFDF91CF911F91D2
:101750000F91FF90EF90DF90CF90BF90AF909F9050
:101760008F907F906F900895EF92FF920F931F9349
:10177000CF93DF937C018B01C0E0D0E0EC16FD0637
:10178000E4F061E083E00E94A00720E030E0201751
:10179000310724F400002F5F3F4FF9CF60E083E072
:1017A0000E94A00720E030E02017310724F4000059
:1017B0002F5F3F4FF9CF2196E1CFDF91CF911F915E
:1017C0000F91FF90EF900895FC01643508F053C02D
:1017D000403308F050C090A1742F7595759575959C
:1017E000262F062E000C330B542F57709230A1F485
:1017F000F901E35EFD4F84E57802E00DF11D11244F
:10180000808190E0052E02C0959587950A94E2F7B5
:101810008095982F91700AC0933041F4848581702F
:10182000462740954170841303C014C0911112C023
:1018300084E57802200D311D1124F901E35EFD4F8E
:1018400081E090E001C0880F5A95EAF78095908179
:10185000892310C084E57802200D311D1124F9017F
:10186000E35EFD4F81E090E001C0880F5A95EAF7F2
:101870009081892B80830895BF92CF92DF92EF925F
:10188000FF920F931F93CF93DF931F92CDB7DEB7D5
:101890007C01D62EC42E002E000C110B040F111D3E
:1018A00047FD1A954C2D0C2C000C550B4017510779
:1018B0007CF4B12CB21654F46B2D6D0D4C2DC70178
:1018C00029830E94E40BB3942981F4CFC394EACF17
:1018D0000F90DF91CF911F910F91FF90EF90DF90CC
:1018E000CF90BF9008956F927F928F929F92AF9208
:1018F000BF92CF92DF92EF92FF920F931F93CF93FD
:10190000DF93EC016A3019F42D819885A1C06D3008
:1019100009F4A4C01885BA84D98488A083E58D15FC
:101920000CF47FC08FE28B150CF47BC08C8190E0AF
:101930000197189F9001199F300D1124C9018D0D39
:10194000911DD7FC9A95181619060CF06AC08D8166
:10195000819FC00111248B0D911DB7FC9A9518161B
:1019600019060CF05EC09D2CCD2CE62EF12CEC2D32
:10197000ED190E2E000CFF0B8C8190E0E817F90793
:101980000CF04EC00197E817F90779F0E89E900136
:10199000E99E300DF89E300D1124E20FF31F8E8D5D
:1019A0009F8DE80FF91F749001C0712C6B2CAB2C2C
:1019B0002A2D2B19022E000C330B8D8190E0281755
:1019C00039075CF570FE10C0113031F44A2D6C2DD2
:1019D000CE010E94E40B1DC0012F212F462D692D41
:1019E000CE010E943C0C15C089A198A1891789F0ED
:1019F00088A3113031F44A2D6C2DCE010E94E40BE6
:101A000007C0012F212F462D692DCE010E943C0CCD
:101A100088A27694A394610ECBCFC394910EA7CFE6
:101A200088A228853C818985329F800D1124898771
:101A30009F81992399F0082E000C990B44E550E002
:101A4000239F401951091124481759073CF49D81DF
:101A50008A85299F800D11248A87198681E090E06C
:101A6000DF91CF911F910F91FF90EF90DF90CF907A
:101A7000BF90AF909F908F907F906F900895CF937D
:101A8000DF9310928E0481E080938F04D0E0C0E059
:101A90004D2F6C2F8EE694E00E94E40BCF5FC03890
:101AA000B9F7DF5FD03499F7DF91CF910895FF92B6
:101AB0000F931F93CF93DF93C0E0D0E0082F10E087
:101AC000FF24F3946091D8012091C9013091CA019B
:101AD000C8010C2E02C0959587950A94E2F780FD07
:101AE00010C0862F90E08217930734F1A9014C5A59
:101AF0005F4F4817590704F110928E04F0928F043B
:101B00000FC0862F90E082179307B4F0A9014C5ABA
:101B10005F4F4817590784F0F0928E0410928F049B
:101B20008091D7014C2F98E0899F400D1124621BB2
:101B30008EE694E00E94E40B2196C830D10511F6A0
:101B40008091D8018F5F8093D801DF91CF911F9151
:101B50000F91FF900895AF92BF92CF92DF92EF92D4
:101B6000FF920F931F93CF93DF931F92CDB7DEB7F2
:101B7000182F7A0100E0F701E00FF11D8081882322
:101B800081F1803261F194ED980F903130F09EEC4C
:101B9000980F993210F095EC980F1F3710F06F5F87
:101BA00010E01093D8016093D70186E0989F500110
:101BB0001124C12CD12CF601EA0DFB1DED5BFD4F6C
:101BC000849169830E94570D8FEFC81AD80A6981E2
:101BD00086E0C816D10479F71A5F0F5FCCCF90E08A
:101BE000DCCF0F90DF91CF911F910F91FF90EF907D
:101BF000DF90CF90BF90AF900895EF92FF920F9338
:101C00001F93CF93DF93CDB7DEB72A970FB6F89423
:101C1000DEBF0FBECDBFF82EE62ECA018E010F5FCC
:101C20001F4F2AE0F80111922A95E9F74AE0B8011E
:101C30000E945320A8016E2D8F2D0E94AB0D2A9675
:101C40000FB6F894DEBF0FBECDBFDF91CF911F91CD
:101C50000F91FF90EF9008954FE451E062E080E033
:101C60000E94AB0D4091C7015091C80162E070E045
:101C70008CE290E00C94FD0DAF92BF92DF92EF9258
:101C8000FF920F931F93CF93DF93EC0181E00E94AB
:101C90003F0DC336D10524F4D093CA01C093C901C6
:101CA0004FE651E061E080E00E94AB0D4BE751E070
:101CB00063E080E00E94AB0D48E851E065E080E41D
:101CC0000E94AB0D1092D8011092D701CCE4D0E065
:101CD00088E30E94570D2197D9F71092D80182E02E
:101CE0008093D701CCE4D0E08CE10E94570D21977E
:101CF000D9F7E12CF12CC1E0D0E084E5D82ED092C8
:101D0000D801C093D70100E010E05E01E894A1F88B
:101D1000F701EC50FE4F84910E94570D8FEFE81AA7
:101D2000F80A81E0A816B10429F40631110514F06F
:101D300003E210E00F5F1F4F023211054CF32196B2
:101D4000C430D105E1F6DF91CF911F910F91FF9043
:101D5000EF90DF90BF90AF9008954F925F926F9297
:101D60007F928F929F92AF92BF92CF92DF92EF922B
:101D7000FF920F931F93CF93DF9300D000D01F9259
:101D8000CDB7DEB74091A0045091A1046091A204A8
:101D90007091A3042FB7F8948091190290911A02C0
:101DA000A0911B02B0911C022FBF481B590B6A0B5C
:101DB0007B0B80919F0490E0A0E0B0E000919B0439
:101DC00010919C0420919D0430919E0484179507E6
:101DD000A607B70730F4011511052105310509F0F3
:101DE0003CC3012B022B032B09F035C38091370430
:101DF00081508E3FC0F5809136048130C9F58091C5
:101E00004A048F5F60914B0487FD09C0082E000CC7
:101E1000990B70E06F5F7F4F0E944722682F60939D
:101E20004A0481E69AE09093A5048093A40488E490
:101E30008093A60480E00E943C138AE798E0909388
:101E4000530480935204109258041092570481E076
:101E50008093460489E080935B0410925E041092A4
:101E60006004109262048091370481508E3F70F4B8
:101E700080913504813009F09CC384E59AE0909309
:101E8000A5048093A40488E48093A60480E00E94C3
:101E90000F1480914604882309F4ABC080915A0442
:101EA0008111A7C08091520490915304E09157048E
:101EB000F0915804EE0FFF1FE80FF91F4591549160
:101EC00041155105F1F420915604222331F010926E
:101ED000580410925704FC0112C0109246048091DD
:101EE0004504882341F080E00E940F14E0915704DC
:101EF000F09158042DC080E00E9427137AC04591CC
:101F000054919A01369527953695279540FF51C0F3
:101F1000CA0116E0969587951A95E1F78F71952F6E
:101F200096959695969590512F70223071F1F8F410
:101F3000211117C08B3008F08AE080935B04E09198
:101F40005704F09158043196F0935804E0935704E5
:101F5000EE0FFF1F8091520490915304E80FF91F78
:101F6000CECF213061F760E00E947914E8CF2330B2
:101F7000B1F0243021F720914904829F802D112453
:101F80008093620490936304DACF20914904829F86
:101F9000802D112480935E0490935F04D0CF209114
:101FA0004904829F802D11248093600490936104E2
:101FB000C6CF2F732093590480914904859F802DAB
:101FC000112480935A0410926A04109269041092AA
:101FD000680481E080935C0480931D0410925D048A
:101FE00080915704909158040196909358048093DF
:101FF000570480915C04882309F4EEC080915A0450
:10200000811103C00E942713E7C0815080935A04B6
:1020100080916A04811146C020916804309169045E
:102020002F5F3F4FC901880F991FE0916404F09121
:102030006504E80FF91F65917491862F877080936E
:102040006B04AB01E3E056954795EA95E1F7CA01C9
:1020500096958795972F9695969590936C048F7388
:1020600090914904899F802D112480936A044170C6
:1020700040931802309369042093680480916604A9
:1020800090E02817390770F020916704222339F077
:10209000821B9109909369048093680403C080E0D7
:1020A0000E94271380916A04815080936A04809172
:1020B0005D0421E0280F20935D0440915904309184
:1020C0006C04340F80915104380F309347046091B1
:1020D0006004662371F070E0822F022E000C990BD1
:1020E0000E94472280916104869F300D1124309315
:1020F00047048091470490E0849664E270E00E9477
:1021000047228093470430915B04309348046091E8
:102110005E04662381F0062E000C770B822F022EC0
:10212000000C990B0E94472280915F04869F300D1E
:10213000112430934804609162046623A1F0822F39
:10214000220F990B70E00E944722CB0162E070E001
:102150000E9447222091630490914804289F900D8B
:10216000112490934804809148044F3341F08A3001
:102170000CF089E087FD80E08093480402C0109253
:102180004804F894E0914704F0E0E058F74FE491F8
:10219000E09317023091480420916D0432039001BE
:1021A000112440916B044203C001439F900D112400
:1021B00000904A0402C0880F991F0A94E2F797FF23
:1021C00002C081589F4F880F892F881F990B8093D9
:1021D0001E0480931F0478948091A604882309F438
:1021E0008DC08C3020F49CE0E92EE81A01C0E12C6F
:1021F000FF24F394F092760410928E0410928F04D0
:10220000309173044DE2D42E1D2D131B1E0D03E0DF
:10221000030F2EE4412F63E08EE694E03D830E949D
:102220003C0C3D810CEF030F1D5F202F41E0612F1F
:1022300080E50E944A15202F42E0612F83E00E9432
:102240004A15F0928E04F0928F040091730413E00B
:10225000100FD01ADE0C23E04D2D622F8EE694E095
:102260002D830E94E40B2D812F5F2135A9F71D0DD1
:10227000FF24FA94F10E23E04F2D622F8EE694E0B6
:102280002D830E94E40B2D812F5F2135A9F7035088
:1022900033E0D30E402F6D2D80E00E943215402F89
:1022A0006D2D83E50E94321541E06D2D83E00E9483
:1022B000B41442E06D2D80E50E94B414145044E043
:1022C000612F80E50E94B41448E0612F83E00E94F2
:1022D000B41484E08093770480917304E81A8E2DFF
:1022E000815D809378048091A4049091A5040E945C
:1022F000A7138091A60481508093A60480913C048A
:1023000090913D04892B09F47CC011E010938E0458
:1023100010928F049091720485E5891B8093770455
:102320001092780480913904813009F44DC030F066
:1023300090913804853008F05FC05AC080E00E9458
:102340003C1310937604E2EDF8E0E491EF5FE09344
:102350007204E3EDF8E0E491EF5FE093730484ED41
:1023600098E090938D0480938C0410923D04109219
:102370003C041092740418EA0E94AD0E8823E1F325
:1023800084EC98E00E94A71360913A0470913B049A
:1023900080E090E04AE00E94A5158FEA98E00E9454
:1023A000A713612F62956F7070E080E090E04AE0C3
:1023B0000E94A51584EA98E00E94A7138091350435
:1023C000813009F0FCC01DC080919104909192046D
:1023D000A0919304B09194048F709927AA27BB27EA
:1023E0000897A105B10510F487E009C088E707C088
:1023F000992339F08B5F03C0992319F08FE20E9473
:10240000E6158EE694E00E94A10980917404811182
:102410000EC088EF91E0EDE1F2E0DF019C011D923A
:1024200021503040E1F710927704109278040E9416
:10243000820860939B0470939C0480939D04909306
:102440009E042091970430919804621B730B709343
:1024500096046093950480E0CCC02FB7F8948091E7
:10246000190290911A02A0911B02B0911C022FBF79
:1024700020919F04820F911DA11DB11D8093A00486
:102480009093A104A093A204B093A304809191041B
:1024900090919204A0919304B09194040196A11D8F
:1024A000B11D8093910490939204A0939304B093F0
:1024B000940410929B0410929C0410929D0410921C
:1024C0009E040E94820860939704709398048093FE
:1024D000990490939A0480912104909122042FE012
:1024E000289F8001299F100D112485E10E946B080F
:1024F000800F911F24E0969587952A95E1F7909398
:1025000022048093210420912004222309F44BC04B
:1025100060912404262F30E040E050E029833A8384
:102520004B835C83C0902504D12CE12CF12C40918D
:102530002804509129044A01A12CB12C2091260491
:10254000309127042901612C712C8217930728F000
:102550009C014817590708F49A01C901A0E0B0E0AE
:102560009C01AD01241935094609570969817A8111
:102570008B819C816C197D098E099F090E942B22F9
:10258000A501940124193509460957090E949E2086
:10259000C20ED31EE41EF51EC09223046C2D70E003
:1025A00085E00E940C080E9453130E94F11581E0FF
:1025B00020C0893209F06ACC0E94D61367CC115032
:1025C00009F0DACE60E070E085E00E940C0883B785
:1025D000817F846083BF83B7816083BF83B781605D
:1025E00083BF889583B78E7F83BF83B78E7F83BF7A
:1025F000C3CE0F900F900F900F900F90DF91CF915F
:102600001F910F91FF90EF90DF90CF90BF90AF9010
:102610009F908F907F906F905F904F900895BC0136
:10262000009791F0FC0101900020E9F73197AF018C
:10263000481B590BE0916E04F0916F040280F38106
:10264000E02D8EE694E0099480E090E008958111F9
:1026500012C010925C0410925A04109269041092F5
:10266000680410925D0410921F0410921E041092D0
:102670001D040C942B090895811114C010925C0460
:1026800010925A04109269041092680410925D042A
:1026900010921F0410921E0410921D040E942B0918
:1026A000109246040895CF92DF92EF92FF920F931B
:1026B0001F93CF93DF93CAE2D4E001E314E0FF2439
:1026C000FA9497E0E92EE00E62E088810E94D0073C
:1026D000288130E0F901E951F54F8491F901ED527B
:1026E000F54FC490F901E154F54FD490DD2071F01D
:1026F00081110E947707ED2DF0E0EE0FFF1FEB54E4
:10270000F54FA591B491EC91EC21B1F4F8018081E1
:102710008F5F808360E088810E94D00721960F5FE1
:102720001F4FE012D1CFDF91CF911F910F91FF90FA
:10273000EF90DF90CF900895F8018081882371F3A6
:10274000F8018F3F11F41082E5CFF082E3CF0F93B1
:102750001F93CF93DF938C01C0E0D0E0F801EC0F22
:10276000FD1F6491662371F0E0916E04F0916F0497
:102770000190F081E02D8EE694E00995892B11F00F
:102780002196ECCFCE01DF91CF911F910F9108954B
:10279000CF93DF930E94A713EC0183E991E00E949D
:1027A0000F138C0F9D1FDF91CF91089588EF91E05B
:1027B000EDE1F2E0DF019C011D9221503040E1F794
:1027C00010927704109278048DE89AE00E94A71383
:1027D0008EE694E00E94A1098CB583608CBD8DB516
:1027E0008E7F8DBD86E991E0EEEFFFE309951092B3
:1027F000740488E69AE00E94C8138EE694E00E9472
:10280000A1090E94531380913504813039F062E3AD
:1028100070E080E090E00E94A708F3CF0895AF92A7
:10282000BF92CF92DF92EF92FF920F931F93CF93BD
:10283000DF93C82ED12CE601C05EDB4F9DA199230A
:1028400009F44CC07E019FEFE91AF90AF70195A13E
:10285000911144C09EA58601000F111F005E1B4F01
:10286000F80134A525A5E32FF22FE90FF11DE90F9B
:10287000F11D259134912F3FFFEF3F0711F41DA269
:102880002DC039ABF601EE0FFF1FE65DFB4F33277E
:10289000220F331F05A0F6A1E02DE20FF31FA59034
:1028A000B490811117C00E943C13F801B3AAA2AAE8
:1028B000F601EE0FFF1FEE5CFB4F16A215A281E0A2
:1028C000F70185A389E08BAF1EAEFE017B9615A2B2
:1028D000329615A229968DA18F5F8DA3DF91CF919E
:1028E0001F910F91FF90EF90DF90CF90BF90AF902E
:1028F000089570E0DB01AA0FBB1FA05EBB4FD4960A
:102900002C91D497D5969C91D597E22FF92FE80F6B
:10291000F11DE80FF11D259134915F9696963C9339
:102920002E939597F9018591949190914904989FE0
:10293000802D1124605E7B4FFB01B19685A3F901C8
:10294000A591B4914B2F50E0E82FF0E04E175F07B0
:1029500020F4F90125913491832FFB01B296899FD0
:10296000802D112485A30895AF92BF92CF92DF925C
:10297000EF92FF920F931F93CF93DF93182F062FA1
:10298000C1E0D3E08AEFD82E9EEFE92E842F847029
:10299000C82E842F8270B82E842F8870A82E417084
:1029A000F42E8C2F880F8F5FE80ECC2081F04D2FF6
:1029B000400F6C2F610F8EE694E00E94E40B4C2FC9
:1029C000400F6D2F610F8EE694E00E94E40BBB2058
:1029D00081F0402F4D1B6C2F610F8EE694E00E941A
:1029E000E40B402F4C1B6D2F610F8EE694E00E948C
:1029F000E40BAA2081F04C2F400F612F6D1B8EE657
:102A000094E00E94E40B4D2F400F612F6C1B8EE66B
:102A100094E00E94E40BFF2081F0402F4C1B612FBB
:102A20006D1B8EE694E00E94E40B402F4D1B612F3E
:102A30006C1B8EE694E00E94E40BCD1744F4E7FC97
:102A400004C0D150D394D394ED0CCF5FAACFDF91C3
:102A5000CF911F910F91FF90EF90DF90CF90BF909B
:102A6000AF9008950F931F93CF93DF93182F062FE6
:102A7000D42FC0E0CD174CF44C2F400F612F8EE6C1
:102A800094E00E94E40BCF5FF5CFDF91CF911F91CF
:102A90000F9108959F92AF92BF92CF92DF92EF92E3
:102AA000FF920F931F93CF93DF93F82EE62EB22E53
:102AB00003E0020FD0E0C3E08AEFC82E1EEF842FA0
:102AC0008170982EAA24A394A20E4270D42EDF5FA8
:102AD000802F8B19180F992081F04C2F440F4A0D2D
:102AE0006E2D6C1B8D2F8F0D0E943215402F6E2D79
:102AF0006D1B8C2F8F0D0E943215DD2081F04C2F25
:102B0000440F4A0D6E2D6C1B8F2D8D1B0E943215AC
:102B1000402F6E2D6D1B8F2D8C1B0E943215DC17E4
:102B200044F417FD04C0C150C394C3941C0D0E5F40
:102B3000CECFDF91CF911F910F91FF90EF90DF905B
:102B4000CF90BF90AF909F9008958F929F92AF9239
:102B5000BF920F931F93CF93DF93CDB7DEB7A197AB
:102B60000FB6F894DEBF0FBECDBF19A2423008F4F5
:102B70004AE08E010F5D1F4F842E912CA12CB12CA9
:102B8000A50194010E94D020E62FB901CA0101508D
:102B90001109EA3014F4E05D01C0E95CD801EC935E
:102BA000232B242B252B61F7C8010E940F13A1961C
:102BB0000FB6F894DEBF0FBECDBFDF91CF911F914E
:102BC0000F91BF90AF909F908F900895E0916E0409
:102BD000F0916F040190F081E02D682F8EE694E073
:102BE000099480913C0490913D04892BB1F180912E
:102BF00044048F7169F584E10E946B08BC01990F50
:102C0000880B990B0E94322126EE3FE34EEC50E4F4
:102C10000E9496210E9401219B0170933B046093C6
:102C20003A04672B91F084E080933904ECE3F4E0FC
:102C300080E0419151912417350718F480933904AD
:102C400008958F5F8430A9F703C08FEF8093390414
:102C5000809144048F5F8093440408958F929F92E3
:102C6000AF92BF92CF92DF92EF92FF920F931F939A
:102C7000CF93DF93FB0124913196C490F0908E04A2
:102C8000022E000C330B121613060CF0D7C0803343
:102C90000CF0D4C0482F082E000C550BFA01EC0D97
:102CA000F11DC7FCFA951E161F060CF0C7C06E5F1B
:102CB0007F4FD901179693E0B595A7959A95E1F7BF
:102CC00087FF0BC0C80EA49FC001A59F900DB49FA5
:102CD000900D1124681B790B80E04C2D0C2C000CFE
:102CE000550B480F511D87FD5A95413351051CF076
:102CF00090E3C92EC81A2535310514F024E530E0DB
:102D000010917A041827982F977031E001C0330F83
:102D10009A95EAF7859585958595F4E58F02C0012A
:102D20001124835E9D4F00E00C2C000CDD08BB24B9
:102D3000B394402F50E04C155D050CF07FC0FB01B3
:102D4000E490F1E0FF1218C0FB01EC0140E8542FC1
:102D50005E2119F05881532B588350E055954795C3
:102D60004115510519F43196E49040E821965C2F05
:102D7000581B521760F359C0F1101AC0A32EA0942B
:102D8000FB01EC0140E8542F5E2119F058815A21D3
:102D9000588350E0559547954115510519F43196E2
:102DA000E49040E821965C2F581B521760F33DC019
:102DB00043E0F41223C0932E9094FB01EC0140E811
:102DC000A82E8C2E881A542F5E2141F0812658811E
:102DD00080FE02C0532B01C05921588350E0559505
:102DE00047954115510519F43196E49040E8219634
:102DF0005C2F5A19521728F31B2517C0FB01EC0151
:102E000040E8542F5E2119F058815327588350E031
:102E1000559547954115510519F43196E49040E8D0
:102E200021965C2F581B521760F3330F19F48C5AFC
:102E30009F4F31E00F5F6A0F7B1F7BCFDF91CF91F8
:102E40001F910F91FF90EF90DF90CF90BF90AF90C8
:102E50009F908F900895CF93DF93CDB7DEB72B97D8
:102E60000FB6F894DEBF0FBECDBF789484B58260F4
:102E700084BD84B5816084BD85B5826085BD85B51E
:102E8000816085BD80916E00816080936E0010929C
:102E90008100809181008260809381008091810017
:102EA00081608093810080918000816080938000A8
:102EB0008091B10084608093B1008091B000816006
:102EC0008093B00080917A00846080937A00809132
:102ED0007A00826080937A0080917A00816080938A
:102EE0007A0080917A00806880937A001092C10005
:102EF00082E380939F0481E090E0A0E0B0E08093C3
:102F00009B0490939C04A0939D04B0939E048FEF28
:102F100080939004E0E8F7E7259134912130304C1C
:102F200009F049C0E6E9F7E7E491E0937904E7E9BD
:102F3000F7E7E491E0932404E8E9F7E7E491E0930C
:102F40002504E9E9F7E7859194919093270480930C
:102F50002604EBE9F7E785919491909329048093F7
:102F6000280487E080934B04EEE9F7E7E491E093CF
:102F70004A04EFE9F7E7E491E0939004E0EAF7E729
:102F80008591949190933D0480933C04E2EAF7E7A5
:102F90008591949190933F0480933E04E4EAF7E78F
:102FA000859194919093410480934004E6EAF7E779
:102FB000859194912CC09CE3909379041092240401
:102FC0008093250480E293E0909327048093260465
:102FD00084ED93E0909329048093280487E0809304
:102FE0004B0480934A048CEA9DE090933D048093C7
:102FF0003C048EED9DE090933F0480933E0484E773
:103000009EE090934104809340048CE39FE0909372
:1030100043048093420411E0109320046FEF70E0AA
:1030200085E00E940C0888E080932A0489E0809360
:103030002B0487E080932C0486E080932D0404E029
:1030400000932E0482E080932F0481E1809330046A
:103050000E9453138CE39FE090933B0480933A04C7
:1030600000933904109344048BE080937C048DE03A
:1030700080937B0480E180937D048EE080937F04C5
:103080008FE080937E041093760410938E04109248
:103090008F0410937504E2EDF8E0E491EF5FE093A4
:1030A0007204E3EDF8E0E491EF5FE093730484EDE4
:1030B00098E090938D0480938C041FB7F8948091CE
:1030C000CB01811127C0E9ECFAE08491EDEDFAE043
:1030D0009491E82FF0E0EE0FFF1FEC58FF4FA59101
:1030E000B491EC91E92321F461E08AE00E94A00709
:1030F00061E08AE00E94D0078CB580618CBD8CB500
:1031000080648CBD61E08DE00E94D00761E08BE0BF
:103110000E94D0078091CB018F5F8093CB011FBFAE
:103120008CB58F7D8CBD8CB58C7F81608CBD8DB551
:1031300081608DBD8CB58C608CBD61E080917C041C
:103140000E94D00761E080917B040E94D00761E07B
:1031500080917D040E94D00780917F0418161CF492
:1031600061E00E94D00780917E0418161CF461E093
:103170000E94D00780917F04181674F460E00E94CA
:10318000A0076AE070E080E090E00E94A70861E09C
:1031900080917F040E94A00780917B04082E000C80
:1031A000990BFC01E154F54FE491F0E0EE0FFF1FA5
:1031B000E258FF4F25913491309383042093820489
:1031C000FC01ED52F54FE491E093890480917C0479
:1031D000082E000C990BFC01E154F54FE491F0E04E
:1031E000EE0FFF1FE258FF4F259134913093810479
:1031F00020938004FC01ED52F54FE491E0938804A4
:1032000080917E04082E000C990BFC01E154F54FCF
:10321000E491F0E0EE0FFF1FE258FF4F259134914B
:103220003093850420938404FC01ED52F54FE49122
:10323000E0938A0480917D04082E000C990BFC0118
:10324000E154F54FE491F0E0EE0FFF1FE258FF4F1D
:10325000259134913093870420938604FC01ED522C
:10326000F54FE491E0938B0461E28EE694E00E94D6
:10327000800964E18EE694E00E94800980917904DF
:1032800087FF03C08FE780937904609179046068B9
:103290008EE694E00E94800960E28EE694E00E944F
:1032A00080096CE08EE694E00E9480098EE694E04E
:1032B0000E94A10911E01093490484E080936D04F9
:1032C00080E790E0909355048093540460E080E0A0
:1032D0000E94791461E070E083E00E940C08809104
:1032E000B100887F81608093B100F89410928000D3
:1032F00010928100109285001092840088E191E084
:1033000090938900809388008091810088608093E9
:1033100081008091810081608093810080916F00A5
:10332000826080936F0078940E94F115809136043A
:10333000813019F410924A041CC08091390488230A
:10334000C9F380E00E943C1388E890E09093530416
:10335000809352041092580410925704109346041C
:1033600089E080935B0410925E04109260041092D6
:10337000620480919004882309F4E7C081E080937F
:10338000760410927504109274041092380480939D
:103390008E0480938F04FCEE6F2EF1E07F2EACE064
:1033A000FA2E0AE718E0EE24E394B9E0DB2E0E943F
:1033B000AD0E8823E1F3F3018491882319F0C090C6
:1033C000730401C0C12C62EB70E080E00E942E16F5
:1033D00062E271E08CE08C0D0E942E161092770450
:1033E000F09278048CEE91E00E94A7138091720411
:1033F000982F990F890F81958D5A8093770480912A
:103400007304982F990F890F8195835D80937804B9
:103410008091910484FF03C08EEA90E002C08AEAA2
:1034200090E00E94C81380917204982F990F890F21
:1034300081958D5A80937704809178048F5F809373
:10344000780480914A04882319F086EA90E002C04B
:1034500082EA90E00E94C81380917204982F990F1D
:10346000890F81958D5A80937704809178048F5FBE
:10347000809378048EE990E00E94C813809136040E
:10348000813039F580914A048F5F60914B0487FD4C
:1034900009C0082E000C990B70E06F5F7F4F0E94EF
:1034A0004722682F60934A0480E00E943C131093E7
:1034B0005304009352041092580410925704E0925F
:1034C0004604D0925B0410925E0410926004109245
:1034D0006204809135048130B9F080919004482FC6
:1034E00050E060E070E08090910490909204A09091
:1034F0009304B090940484169506A606B70608F4C3
:10350000D3C48F3F09F4D0C48FEF8093900480E040
:103510000E943C1380E00E943C1386E990E0909367
:10352000530480935204109258041092570481E07F
:103530008093460499E090935B0410925E0410928D
:1035400060041092620480933804E2E04E2E512C05
:1035500081E00E943F0D1092CA011092C901809132
:103560003604813009F4A8C481E00E943F0D109216
:10357000C8011092C7015092C6014092C50181E076
:1035800090E09093C4018093C30186E990E090930A
:10359000D3018093D2015092D1014092D0010E9478
:1035A000200A0E94E7098091C5019091C60197FD0C
:1035B000CFC30E94AD0E8823E1F3809131048130A6
:1035C00009F49FC480913304813009F49FC4809131
:1035D0003204813009F49FC480913404813009F4AD
:1035E000A1C48091C001883308F45AC00E94E70941
:1035F0000E94200A0091C3011091C4010F5F1F4F68
:103600001093C4010093C3010330110519F0053074
:10361000110549F48091C5019091C60101969093DE
:10362000C6018093C5018091D0019091D101833072
:1036300091052CF401969093D1018093D001809153
:10364000D2019091D301833391052CF04997909347
:10365000D3018093D20180E00E943F0D1092CA01F5
:103660001092C90148E251E063E080E00E94AB0D96
:10367000A80163E070E08CE290E00E94FD0D0E94E2
:103680002C0E8EE694E00E94A10964EC79E080E0C3
:1036900090E00E94A70880E00E943F0D0E947E0AF1
:1036A0008091A4019091A50101969093A50180932A
:1036B000A4012091D2013091D301821793072CF1FC
:1036C0001092A5011092A4012091D0013091D10156
:1036D00060E001C06F5F862F90E082179307ACF423
:1036E000880F991FFC01EA55FE4F40815181452BFF
:1036F00089F7DC01A854BE4F80E48C9380E11196D9
:103700008C9381E090E09183808346EA51E05F836F
:103710004E8330EBE32E31E0F32E49EBC42E41E033
:10372000D42E58EB252E51E0352E3A8229825601AF
:103730001B861A865FC0F701208131812150310933
:103740002330310508F05FC0F901EF5EFE4F808144
:10375000082E000C990BF901E25FFE4F4081F90140
:10376000E55FFE4F5081652F550F770B7C836B8390
:10377000F901E85FFE4F7080F901EB5FFE4F708149
:103780007D838A849B84880C991C8401040F111DFD
:1037900008541E4FF8016080860D8083D5016C911E
:1037A000E981FA8180810E94320A0197C1F5D8012E
:1037B0006C920E94452024E030E040E050E00E94FE
:1037C0009E20F701718360834A855B854F5F5F4F61
:1037D0005B874A8752E0E50EF11C62E0A60EB11C41
:1037E00089819A8102969A838983AA85BB851397DA
:1037F00009F453C0AE81BF818D919D91BF83AE838B
:10380000019711F798CF83E08D8377247394AFEFFE
:10381000BFEFBC83AB8340E081E090E0B2CF23E018
:1038200030E0072D10E0C401800F911FAC01485417
:103830005E4F3A01D3018C91BB818B0FF3018083E2
:10384000D5016C91E981FA818081298738870E94AE
:10385000320A29853885019709F431E0215051F762
:1038600031110EC00E94452024E630E040E050E0D7
:103870000E949E2063337105810591050CF059C3A8
:10388000080D191DF801E854FE4F9B81990F2B81FB
:10389000920F8081891B808397CF8091CE01909178
:1038A000CF0101969093CF018093CE01029709F04A
:1038B0004EC08091AE019091AF01892B41F581E01E
:1038C00090E09093AF018093AE018091AC0198E3BA
:1038D000899F8001181B1124B8016E5A7C4F84E027
:1038E00090E00E94B40BB80160537D4F85E090E0FA
:1038F0000E94B40BB80164597D4F84E090E00E94AF
:10390000B40BB801665C7D4F85E090E01AC0109260
:10391000AF011092AE016AE372E085E090E00E9490
:10392000B40B6CE672E084E090E00E94B40B60EDB2
:1039300072E085E090E00E94B40B62E573E084E001
:1039400090E00E94B40B1092CF011092CE018091B2
:10395000AC01882391F08091A2019091A30101967E
:103960009093A3018093A201883C910534F01092BA
:10397000AC011092A3011092A2010091B601109126
:10398000B7011093CD010093CC012091C10130917A
:10399000C2013093B7012093B601F090BE01EF2D24
:1039A000F0E07E97F093CA01E093C901E090BF0177
:1039B0004E2D50E0445151095093A1014093A00174
:1039C000F7FF0BC01092CA011092C90157FF13C034
:1039D0001092A1011092A00102C057FDF9CF809171
:1039E000C9019091CA018C9734F08BE290E09093DA
:1039F000CA018093C9018091A0019091A1014197D2
:103A000034F080E190E09093A1018093A0012130F7
:103A1000310509F458C01CF4232B41F06EC022304C
:103A20003105E1F023303105A9F167C0F090BE0106
:103A3000F394F092BE016E2D8F2D0E94320A0197F1
:103A400021F41093B7010093B601EA85FB85319705
:103A5000FB87EA87EF2B51F78DEF18C0F090BE017E
:103A6000FA94F092BE016E2D8F2D0E94320A0197BA
:103A700021F41093B7010093B6014A855B8541504C
:103A800051095B874A87452B49F783E08F0D809367
:103A9000BE0133C0E090BF01EA94E092BF016E2DF9
:103AA0008F2D0E94320A019721F41093B7010093E1
:103AB000B6016A857B85615071097B876A87672BB0
:103AC00049F783E017C0E090BF01E394E092BF01A3
:103AD0006E2D8F2D0E94320A019721F41093B701A9
:103AE0000093B6018A859B8501979B878A87892BDE
:103AF00051F78DEF8E0D8093BF018091B6019091AB
:103B0000B70181309105F9F034F4892B51F510910A
:103B1000BE0181E00CC08230910531F0039709F5B8
:103B20001091BF016FEF12C01091BE018FEF810F96
:103B30008093BE016091BF010E94320A019789F40F
:103B40001093BE010EC01091BF0161E0610F609340
:103B5000BF018091BE010E94320A019711F41093B7
:103B6000BF018091BF018333D1F48091BE018E30BB
:103B700038F480919E01813091F410929E0108C02A
:103B8000803768F080919F01813049F410929F0145
:103B900091E09093AC011092A3011092A201E8EB86
:103BA000F1E095E128E334E6D6018C91811103C060
:103BB0002C93308305C0883318F0D6011C92908373
:103BC000B2E0CB0ED11C329641E0E03CF40761F745
:103BD000A12CB12CD12C00E010E08091BE0190E02E
:103BE000D1012C9130E0AC01475051092417350721
:103BF0000CF44BC00796821793070CF446C08091D3
:103C0000BF0190E0F501E854FE4F218130E0AC01A6
:103C10004750510924173507C4F1079682179307B7
:103C2000A4F18091AC01882371F1D801A85EBE4F48
:103C30008C91D1018C93D801AC5EBE4F8C91818365
:103C4000F501EA55FE4F118210829CEBE92E92E0BD
:103C5000F92EB7018EE190E00E94B40BB2E3EB1AAB
:103C6000F108E8ECEE16F104A1F78091C7019091FC
:103C7000C8010A969093C8018093C7011092A501CC
:103C80001092A40102C0DD24D3940F5F1F4FF2E015
:103C90002F0E311C22E0A20EB11C46E0A416B10486
:103CA00009F09BCFDD2009F450C063E070E0709311
:103CB000B7016093B60181E090E09093AF018093EB
:103CC000AE010E947E0A00E010E0B80182E390E0BD
:103CD0000E94B40B0E5C1F4F043F71E01707A9F759
:103CE0000E94AD0E8823E1F30E947E0A0E94AD0E71
:103CF0008823E1F31092AF011092AE010E947E0A78
:103D0000B80182E390E00E94B40B0E5C1F4F083EA6
:103D100083E01807A9F70E94AD0E8823E1F30E9403
:103D20007E0A64EF71E080E090E00E94A70891E0D5
:103D30009093AD018091C5019091C6010197909338
:103D4000C6018093C5010E94E7090E947E0A2BCC20
:103D50000E94E70980E090E00E948820082F10E090
:103D6000102F00271093D6010093D50181E090E039
:103D70000E948820082B1093D6010093D501109241
:103D8000D4016091C7017091C801061717078CF420
:103D90007093D6016093D50181E090E00E9490205D
:103DA0006091C80180E090E00E94902081E08093C3
:103DB000D4011092CA011092C90180E00E943F0D07
:103DC0004DE351E060E080E00E94AB0D4FE251E036
:103DD00061E080E00E94AB0D4DE351E063E080E0E4
:103DE0000E94AB0D0E942C0E0E94AD0E8823E1F3C1
:103DF00064EC79E080E090E00E94A70880E00E94F7
:103E00003F0D4AE351E060E080E00E94AB0D4AE3E1
:103E100051E063E080E00E94AB0D4091D5015091EC
:103E2000D60162E070E088E190E00E94FD0D809193
:103E3000D401811106C04AE451E061E00E94AB0D5B
:103E400012C046E551E061E080E00E94AB0D0CEB52
:103E500012E0B8018EE190E00E94B40B0253110908
:103E6000083C1105B1F70E94AD0E8823E1F364EC24
:103E700079E080E090E00E94A70881E00E943F0D79
:103E80008EE694E00E94A10980913504813009F00A
:103E900057C00E94AD0E8823E1F365E070E080E03A
:103EA00090E00E94A708F0CF80913704813009F09C
:103EB0007ECA0E94D6137BCA60E080E090E00E9438
:103EC000902060E081E090E00E9490204BE351E080
:103ED00060E080E00E94AB0D40E651E061E080E0F0
:103EE0000E94AB0D4BE351E063E080E00E94AB0D1C
:103EF0000E94AD0E8823E1F360ED77E080E090E072
:103F0000BACF5092C2014092C1015CCB1092C20163
:103F10001092C1015CCBA3E0B0E0B093C201A093CA
:103F2000C1015ACB81E090E09093C2018093C1011E
:103F300058CBBD818B2F90E0F70191838083A0CC7B
:103F40008FE3809359048091490480935A0410921E
:103F50006A04109269041092680481E080935C0402
:103F600080931D0410925D040E94AD0E8823E1F33E
:103F70001092CA011092C90100E010E0C8010E942D
:103F80003C0E8EE694E00E94A1090115110531F462
:103F900064EA76E080E090E00E94A7080D5F1F4F82
:103FA0000A32110559F780913504813041F480E0DF
:103FB00090E0892B09F4CCCA0E940000C9CA809104
:103FC00036048130A1F384E690E00E943C0E0E940A
:103FD000AD0E8823E1F3E7CF1092710410927004C4
:103FE00080E291E090936F0480936E0408958F9225
:103FF0009F92AF92BF92CF92DF92EF92FF92CF93B8
:10400000DF93EC01688179818A819B81611571055B
:104010008105910521F464E279ED8BE597E02DE1CE
:1040200033EF41E050E00E949E2049015A019B017C
:10403000AC01A7EAB1E40E94BD206B017C01ACEEAB
:10404000B4EFA50194010E94CB20DC01CB018C0DC3
:104050009D1DAE1DBF1DB7FF03C00197A109B0484C
:1040600088839983AA83BB83BC01CD019F77DF91AD
:10407000CF91FF90EF90DF90CF90BF90AF909F9047
:104080008F9008950E94F71F089581E091E00E94AB
:10409000F71F08956093010170930201809303015B
:1040A000909304010895BB274A3031F4992322F4F8
:1040B000BDE2909581959F4F0C945F20BB27FB013B
:1040C0005527AA27880F991FAA1FA41710F0A41B11
:1040D00083955051B9F7A05DAA3308F0A95DA1936B
:1040E000009779F7B111B1931192CB010C9478201C
:1040F000DC01FC01672F71917723E1F7329704C04F
:104100007C916D9370836291AE17BF07C8F30895D9
:10411000F999FECF92BD81BDF89A992780B508958F
:10412000262FF999FECF1FBA92BD81BD20BD0FB6D3
:10413000F894FA9AF99A0FBE01960895052E97FB06
:104140001EF400940E94B52057FD07D00E94D02095
:1041500007FC03D04EF40C94B52050954095309553
:1041600021953F4F4F4F5F4F0895909580957095E3
:1041700061957F4F8F4F9F4F08950E94F220A59F1A
:10418000900DB49F900DA49F800D911D1124089552
:10419000B7FF0C94BD200E94BD20821B930B089595
:1041A000A1E21A2EAA1BBB1BFD010DC0AA1FBB1F3B
:1041B000EE1FFF1FA217B307E407F50720F0A21BAD
:1041C000B30BE40BF50B661F771F881F991F1A941A
:1041D00069F760957095809590959B01AC01BD0144
:1041E000CF010895A29FB001B39FC001A39F700D9E
:1041F000811D1124911DB29F700D811D1124911DEF
:1042000008950E94752188F09F5798F0B92F99273B
:10421000B751B0F0E1F0660F771F881F991F1AF0B1
:10422000BA95C9F714C0B13091F00E948F21B1E066
:1042300008950C948F21672F782F8827B85F39F065
:10424000B93FCCF3869577956795B395D9F73EF44A
:1042500090958095709561957F4F8F4F9F4F0895F2
:10426000E89409C097FB3EF4909580957095619510
:104270007F4F8F4F9F4F9923A9F0F92F96E9BB27C6
:104280009395F695879577956795B795F111F8CF42
:10429000FAF4BB0F11F460FF1BC06F5F7F4F8F4FAD
:1042A0009F4F16C0882311F096E911C0772321F0A3
:1042B0009EE8872F762F05C0662371F096E8862F3B
:1042C00070E060E02AF09A95660F771F881FDAF792
:1042D000880F9695879597F9089557FD9058440F44
:1042E000551F59F05F3F71F04795880F97FB991F55
:1042F00061F09F3F79F08795089512161306140612
:10430000551FF2CF4695F1DF08C01616170618069E
:10431000991FF1CF86957105610508940895E89479
:10432000BB2766277727CB0197F908950E94A9211B
:104330000C941A220E940C2238F00E94132220F0C2
:10434000952311F00C9403220C94092211240C944F
:1043500090210E946D2170F3959FC1F3950F50E05D
:10436000551F629FF001729FBB27F00DB11D639F27
:10437000AA27F00DB11DAA1F649F6627B00DA11DCD
:10438000661F829F2227B00DA11D621F739FB00D73
:10439000A11D621F839FA00D611D221F749F3327E3
:1043A000A00D611D231F849F600D211D822F762F7C
:1043B0006A2F11249F5750409AF0F1F088234AF059
:1043C000EE0FFF1FBB1F661F771F881F91505040C5
:1043D000A9F79E3F510580F00C9403220C94902184
:1043E0005F3FE4F3983ED4F3869577956795B7954C
:1043F000F795E7959F5FC1F7FE2B880F911D969566
:10440000879597F9089597F99F6780E870E060E0D5
:1044100008959FEF80EC089500240A94161617065D
:1044200018060906089500240A94121613061406A5
:1044300005060895092E0394000C11F4882352F008
:10444000BB0F40F4BF2B11F460FF04C06F5F7F4FC0
:104450008F4F9F4F0895DB018F939F930E94BD2044
:10446000BF91AF91A29F800D911DA39F900DB29F10
:10447000900D11240895991B79E004C0991F961797
:1044800008F0961B881F7A95C9F78095089597FBC9
:10449000072E16F4009407D077FD09D00E945B2206
:1044A00007FC05D03EF4909581959F4F0895709537
:1044B00061957F4F0895AA1BBB1B51E107C0AA1F3E
:1044C000BB1FA617B70710F0A61BB70B881F991FB5
:1044D0005A95A9F780959095BC01CD010895EE0FEE
:1044E000FF1F0590F491E02D099481E090E0F8948D
:0844F0000C947A22F894FFCF2E
:1044F80001010000000001020001000101FF0100AC
:104508000101FFFF1C1C1C2842374D37000000002A
:10451800730CA905720771074C4556454C3A00477C
:10452800414D4520204F564552002D2D2D2D2D2D26
:104538002D2D2D2D2D2D2D2D2D004849474820534B
:10454800434F52453A004E455720484947483A009C
:1045580048492053434F5245205245534554005033
:104568002041204B2D4D2041204E00616E64792062
:104578006A61636B736F6E00507265737320412EAE
:0E4588002E2E000D0A004C4F414445520000FB
:00000001FF
